{
  "_format": "hh-sol-artifact-1",
  "contractName": "DAO",
  "sourceName": "contracts/DAO.sol",
  "abi": [
    {
      "inputs": [],
      "stateMutability": "nonpayable",
      "type": "constructor"
    },
    {
      "inputs": [
        {
          "internalType": "uint256",
          "name": "",
          "type": "uint256"
        }
      ],
      "name": "Proposals",
      "outputs": [
        {
          "internalType": "uint256",
          "name": "id",
          "type": "uint256"
        },
        {
          "internalType": "string",
          "name": "description",
          "type": "string"
        },
        {
          "internalType": "string",
          "name": "choice1",
          "type": "string"
        },
        {
          "internalType": "string",
          "name": "choice2",
          "type": "string"
        },
        {
          "internalType": "string",
          "name": "choice3",
          "type": "string"
        },
        {
          "internalType": "uint256",
          "name": "vouteCountChoice1",
          "type": "uint256"
        },
        {
          "internalType": "uint256",
          "name": "vouteCountChoice2",
          "type": "uint256"
        },
        {
          "internalType": "uint256",
          "name": "vouteCountChoice3",
          "type": "uint256"
        }
      ],
      "stateMutability": "view",
      "type": "function"
    },
    {
      "inputs": [
        {
          "internalType": "string",
          "name": "_description",
          "type": "string"
        },
        {
          "internalType": "string",
          "name": "_choice1",
          "type": "string"
        },
        {
          "internalType": "string",
          "name": "_choice2",
          "type": "string"
        },
        {
          "internalType": "string",
          "name": "_choice3",
          "type": "string"
        }
      ],
      "name": "createProposal",
      "outputs": [],
      "stateMutability": "nonpayable",
      "type": "function"
    },
    {
      "inputs": [],
      "name": "getDAOMembers",
      "outputs": [
        {
          "internalType": "address[]",
          "name": "",
          "type": "address[]"
        }
      ],
      "stateMutability": "nonpayable",
      "type": "function"
    },
    {
      "inputs": [
        {
          "internalType": "uint256",
          "name": "proposalId",
          "type": "uint256"
        }
      ],
      "name": "getProposal",
      "outputs": [
        {
          "components": [
            {
              "internalType": "uint256",
              "name": "id",
              "type": "uint256"
            },
            {
              "internalType": "string",
              "name": "description",
              "type": "string"
            },
            {
              "internalType": "string",
              "name": "choice1",
              "type": "string"
            },
            {
              "internalType": "string",
              "name": "choice2",
              "type": "string"
            },
            {
              "internalType": "string",
              "name": "choice3",
              "type": "string"
            },
            {
              "internalType": "uint256",
              "name": "vouteCountChoice1",
              "type": "uint256"
            },
            {
              "internalType": "uint256",
              "name": "vouteCountChoice2",
              "type": "uint256"
            },
            {
              "internalType": "uint256",
              "name": "vouteCountChoice3",
              "type": "uint256"
            }
          ],
          "internalType": "struct DAO.proposal",
          "name": "",
          "type": "tuple"
        }
      ],
      "stateMutability": "nonpayable",
      "type": "function"
    },
    {
      "inputs": [
        {
          "internalType": "address",
          "name": "nftHolder",
          "type": "address"
        }
      ],
      "name": "joinDAO",
      "outputs": [],
      "stateMutability": "nonpayable",
      "type": "function"
    },
    {
      "inputs": [
        {
          "internalType": "uint256",
          "name": "proposalId",
          "type": "uint256"
        },
        {
          "internalType": "uint256",
          "name": "choice",
          "type": "uint256"
        }
      ],
      "name": "voteOnProposal",
      "outputs": [],
      "stateMutability": "nonpayable",
      "type": "function"
    }
  ],
  "bytecode": "0x608060405234801561001057600080fd5b50600080546001600160a01b03191673e3988a93e9e1000ffbe318666849d91a6626784c1790556001600255610fbc8061004b6000396000f3fe608060405234801561001057600080fd5b50600436106100625760003560e01c80632a68969214610067578063556f6cc01461007c5780637f9ba6321461008f578063c7f758a8146100a2578063d1dbe7d8146100cb578063e43bcc77146100f2575b600080fd5b61007a610075366004610c37565b610107565b005b61007a61008a366004610d0f565b61029b565b61007a61009d366004610c09565b610418565b6100b56100b0366004610cdf565b610548565b6040516100c29190610dc8565b60405180910390f35b6100de6100d9366004610cdf565b610826565b6040516100c2989796959493929190610e75565b6100fa610a87565b6040516100c29190610d7b565b6000546040516370a0823160e01b81523360048201526001916001600160a01b0316906370a082319060240160206040518083038186803b15801561014b57600080fd5b505afa15801561015f573d6000803e3d6000fd5b505050506040513d601f19601f820116820180604052508101906101839190610cf7565b10156101fc5760405162461bcd60e51b815260206004820152603e60248201527f596f75206e65656420746f206d696e7420616e20455448476c6f62616c44414f60448201527f204e4654206265666f7265206372656174696e672070726f706f73616c73000060648201526084015b60405180910390fd5b6002546000818152600360209081526040909120918255855161022791600184019190880190610ae9565b50835161023d9060028301906020870190610ae9565b5082516102539060038301906020860190610ae9565b5081516102699060048301906020850190610ae9565b506000600582018190556006820181905560078201819055600280549161028f83610f3f565b91905055505050505050565b6000546040516370a0823160e01b81523360048201526001916001600160a01b0316906370a082319060240160206040518083038186803b1580156102df57600080fd5b505afa1580156102f3573d6000803e3d6000fd5b505050506040513d601f19601f820116820180604052508101906103179190610cf7565b101561038b5760405162461bcd60e51b815260206004820152603f60248201527f596f75206e65656420746f206d696e7420616e20455448476c6f62616c44414f60448201527f204e4654206265666f726520766f74696e67206f6e2070726f706f73616c730060648201526084016101f3565b80600114156103c15760008281526003602052604081206005018054600192906103b6908490610eec565b909155506104149050565b80600214156103ec5760008281526003602052604081206006018054600192906103b6908490610eec565b600082815260036020526040812060070180546001929061040e908490610eec565b90915550505b5050565b6000546040516370a0823160e01b81526001600160a01b03838116600483015260019216906370a082319060240160206040518083038186803b15801561045e57600080fd5b505afa158015610472573d6000803e3d6000fd5b505050506040513d601f19601f820116820180604052508101906104969190610cf7565b10156104f75760405162461bcd60e51b815260206004820152602a60248201527f596f75206e65656420746f206d696e7420616e20455448476c6f62616c44414f6044820152690813919508199a5c9cdd60b21b60648201526084016101f3565b6001805480820182556000919091527fb10e2d527612073b26eecdfd717e6a320cf44b4afac2b0732d9fcbe2b7fa0cf60180546001600160a01b0319166001600160a01b0392909216919091179055565b61059060405180610100016040528060008152602001606081526020016060815260200160608152602001606081526020016000815260200160008152602001600081525090565b6003600083815260200190815260200160002060405180610100016040529081600082015481526020016001820180546105c990610f04565b80601f01602080910402602001604051908101604052809291908181526020018280546105f590610f04565b80156106425780601f1061061757610100808354040283529160200191610642565b820191906000526020600020905b81548152906001019060200180831161062557829003601f168201915b5050505050815260200160028201805461065b90610f04565b80601f016020809104026020016040519081016040528092919081815260200182805461068790610f04565b80156106d45780601f106106a9576101008083540402835291602001916106d4565b820191906000526020600020905b8154815290600101906020018083116106b757829003601f168201915b505050505081526020016003820180546106ed90610f04565b80601f016020809104026020016040519081016040528092919081815260200182805461071990610f04565b80156107665780601f1061073b57610100808354040283529160200191610766565b820191906000526020600020905b81548152906001019060200180831161074957829003601f168201915b5050505050815260200160048201805461077f90610f04565b80601f01602080910402602001604051908101604052809291908181526020018280546107ab90610f04565b80156107f85780601f106107cd576101008083540402835291602001916107f8565b820191906000526020600020905b8154815290600101906020018083116107db57829003601f168201915b5050505050815260200160058201548152602001600682015481526020016007820154815250509050919050565b6003602052600090815260409020805460018201805491929161084890610f04565b80601f016020809104026020016040519081016040528092919081815260200182805461087490610f04565b80156108c15780601f10610896576101008083540402835291602001916108c1565b820191906000526020600020905b8154815290600101906020018083116108a457829003601f168201915b5050505050908060020180546108d690610f04565b80601f016020809104026020016040519081016040528092919081815260200182805461090290610f04565b801561094f5780601f106109245761010080835404028352916020019161094f565b820191906000526020600020905b81548152906001019060200180831161093257829003601f168201915b50505050509080600301805461096490610f04565b80601f016020809104026020016040519081016040528092919081815260200182805461099090610f04565b80156109dd5780601f106109b2576101008083540402835291602001916109dd565b820191906000526020600020905b8154815290600101906020018083116109c057829003601f168201915b5050505050908060040180546109f290610f04565b80601f0160208091040260200160405190810160405280929190818152602001828054610a1e90610f04565b8015610a6b5780601f10610a4057610100808354040283529160200191610a6b565b820191906000526020600020905b815481529060010190602001808311610a4e57829003601f168201915b5050505050908060050154908060060154908060070154905088565b60606001805480602002602001604051908101604052809291908181526020018280548015610adf57602002820191906000526020600020905b81546001600160a01b03168152600190910190602001808311610ac1575b5050505050905090565b828054610af590610f04565b90600052602060002090601f016020900481019282610b175760008555610b5d565b82601f10610b3057805160ff1916838001178555610b5d565b82800160010185558215610b5d579182015b82811115610b5d578251825591602001919060010190610b42565b50610b69929150610b6d565b5090565b5b80821115610b695760008155600101610b6e565b600082601f830112610b92578081fd5b813567ffffffffffffffff80821115610bad57610bad610f70565b604051601f8301601f19908116603f01168101908282118183101715610bd557610bd5610f70565b81604052838152866020858801011115610bed578485fd5b8360208701602083013792830160200193909352509392505050565b600060208284031215610c1a578081fd5b81356001600160a01b0381168114610c30578182fd5b9392505050565b60008060008060808587031215610c4c578283fd5b843567ffffffffffffffff80821115610c63578485fd5b610c6f88838901610b82565b95506020870135915080821115610c84578485fd5b610c9088838901610b82565b94506040870135915080821115610ca5578384fd5b610cb188838901610b82565b93506060870135915080821115610cc6578283fd5b50610cd387828801610b82565b91505092959194509250565b600060208284031215610cf0578081fd5b5035919050565b600060208284031215610d08578081fd5b5051919050565b60008060408385031215610d21578182fd5b50508035926020909101359150565b60008151808452815b81811015610d5557602081850181015186830182015201610d39565b81811115610d665782602083870101525b50601f01601f19169290920160200192915050565b6020808252825182820181905260009190848201906040850190845b81811015610dbc5783516001600160a01b031683529284019291840191600101610d97565b50909695505050505050565b602081528151602082015260006020830151610100806040850152610df1610120850183610d30565b91506040850151601f1980868503016060870152610e0f8483610d30565b93506060870151915080868503016080870152610e2c8483610d30565b935060808701519150808685030160a087015250610e4a8382610d30565b92505060a085015160c085015260c085015160e085015260e085015181850152508091505092915050565b60006101008a8352806020840152610e8f8184018b610d30565b90508281036040840152610ea3818a610d30565b90508281036060840152610eb78189610d30565b90508281036080840152610ecb8188610d30565b60a0840196909652505060c081019290925260e09091015295945050505050565b60008219821115610eff57610eff610f5a565b500190565b600181811c90821680610f1857607f821691505b60208210811415610f3957634e487b7160e01b600052602260045260246000fd5b50919050565b6000600019821415610f5357610f53610f5a565b5060010190565b634e487b7160e01b600052601160045260246000fd5b634e487b7160e01b600052604160045260246000fdfea2646970667358221220702a6b4b1b56528f434043e0091d3fa32c84f9d1d3fe054a91c5b3f26ee0961064736f6c63430008040033",
  "linkReferences": {},
  "deployedLinkReferences": {}
}