{
  "_format": "hh-sol-artifact-1",
  "contractName": "MyNFT",
  "sourceName": "contracts/NFT.sol",
  "abi": [
    {
      "inputs": [],
      "stateMutability": "nonpayable",
      "type": "constructor"
    },
    {
      "anonymous": false,
      "inputs": [
        {
          "indexed": true,
          "internalType": "address",
          "name": "owner",
          "type": "address"
        },
        {
          "indexed": true,
          "internalType": "address",
          "name": "approved",
          "type": "address"
        },
        {
          "indexed": true,
          "internalType": "uint256",
          "name": "tokenId",
          "type": "uint256"
        }
      ],
      "name": "Approval",
      "type": "event"
    },
    {
      "anonymous": false,
      "inputs": [
        {
          "indexed": true,
          "internalType": "address",
          "name": "owner",
          "type": "address"
        },
        {
          "indexed": true,
          "internalType": "address",
          "name": "operator",
          "type": "address"
        },
        {
          "indexed": false,
          "internalType": "bool",
          "name": "approved",
          "type": "bool"
        }
      ],
      "name": "ApprovalForAll",
      "type": "event"
    },
    {
      "anonymous": false,
      "inputs": [
        {
          "indexed": true,
          "internalType": "address",
          "name": "previousOwner",
          "type": "address"
        },
        {
          "indexed": true,
          "internalType": "address",
          "name": "newOwner",
          "type": "address"
        }
      ],
      "name": "OwnershipTransferred",
      "type": "event"
    },
    {
      "anonymous": false,
      "inputs": [
        {
          "indexed": true,
          "internalType": "address",
          "name": "from",
          "type": "address"
        },
        {
          "indexed": true,
          "internalType": "address",
          "name": "to",
          "type": "address"
        },
        {
          "indexed": true,
          "internalType": "uint256",
          "name": "tokenId",
          "type": "uint256"
        }
      ],
      "name": "Transfer",
      "type": "event"
    },
    {
      "inputs": [
        {
          "internalType": "address",
          "name": "to",
          "type": "address"
        },
        {
          "internalType": "uint256",
          "name": "tokenId",
          "type": "uint256"
        }
      ],
      "name": "approve",
      "outputs": [],
      "stateMutability": "nonpayable",
      "type": "function"
    },
    {
      "inputs": [
        {
          "internalType": "address",
          "name": "owner",
          "type": "address"
        }
      ],
      "name": "balanceOf",
      "outputs": [
        {
          "internalType": "uint256",
          "name": "",
          "type": "uint256"
        }
      ],
      "stateMutability": "view",
      "type": "function"
    },
    {
      "inputs": [
        {
          "internalType": "uint256",
          "name": "tokenId",
          "type": "uint256"
        }
      ],
      "name": "getApproved",
      "outputs": [
        {
          "internalType": "address",
          "name": "",
          "type": "address"
        }
      ],
      "stateMutability": "view",
      "type": "function"
    },
    {
      "inputs": [
        {
          "internalType": "address",
          "name": "recipient",
          "type": "address"
        }
      ],
      "name": "getOwnershipMap",
      "outputs": [
        {
          "internalType": "uint256[]",
          "name": "",
          "type": "uint256[]"
        }
      ],
      "stateMutability": "view",
      "type": "function"
    },
    {
      "inputs": [
        {
          "internalType": "uint256",
          "name": "itemId",
          "type": "uint256"
        }
      ],
      "name": "getPricePrediction",
      "outputs": [
        {
          "internalType": "string",
          "name": "",
          "type": "string"
        }
      ],
      "stateMutability": "view",
      "type": "function"
    },
    {
      "inputs": [
        {
          "internalType": "address",
          "name": "owner",
          "type": "address"
        },
        {
          "internalType": "address",
          "name": "operator",
          "type": "address"
        }
      ],
      "name": "isApprovedForAll",
      "outputs": [
        {
          "internalType": "bool",
          "name": "",
          "type": "bool"
        }
      ],
      "stateMutability": "view",
      "type": "function"
    },
    {
      "inputs": [
        {
          "internalType": "address",
          "name": "recipient",
          "type": "address"
        },
        {
          "internalType": "string",
          "name": "uri",
          "type": "string"
        },
        {
          "internalType": "string",
          "name": "ethPricePrediction",
          "type": "string"
        }
      ],
      "name": "mint",
      "outputs": [
        {
          "internalType": "uint256",
          "name": "",
          "type": "uint256"
        }
      ],
      "stateMutability": "nonpayable",
      "type": "function"
    },
    {
      "inputs": [],
      "name": "name",
      "outputs": [
        {
          "internalType": "string",
          "name": "",
          "type": "string"
        }
      ],
      "stateMutability": "view",
      "type": "function"
    },
    {
      "inputs": [],
      "name": "owner",
      "outputs": [
        {
          "internalType": "address",
          "name": "",
          "type": "address"
        }
      ],
      "stateMutability": "view",
      "type": "function"
    },
    {
      "inputs": [
        {
          "internalType": "uint256",
          "name": "tokenId",
          "type": "uint256"
        }
      ],
      "name": "ownerOf",
      "outputs": [
        {
          "internalType": "address",
          "name": "",
          "type": "address"
        }
      ],
      "stateMutability": "view",
      "type": "function"
    },
    {
      "inputs": [],
      "name": "renounceOwnership",
      "outputs": [],
      "stateMutability": "nonpayable",
      "type": "function"
    },
    {
      "inputs": [
        {
          "internalType": "address",
          "name": "from",
          "type": "address"
        },
        {
          "internalType": "address",
          "name": "to",
          "type": "address"
        },
        {
          "internalType": "uint256",
          "name": "tokenId",
          "type": "uint256"
        }
      ],
      "name": "safeTransferFrom",
      "outputs": [],
      "stateMutability": "nonpayable",
      "type": "function"
    },
    {
      "inputs": [
        {
          "internalType": "address",
          "name": "from",
          "type": "address"
        },
        {
          "internalType": "address",
          "name": "to",
          "type": "address"
        },
        {
          "internalType": "uint256",
          "name": "tokenId",
          "type": "uint256"
        },
        {
          "internalType": "bytes",
          "name": "_data",
          "type": "bytes"
        }
      ],
      "name": "safeTransferFrom",
      "outputs": [],
      "stateMutability": "nonpayable",
      "type": "function"
    },
    {
      "inputs": [
        {
          "internalType": "address",
          "name": "operator",
          "type": "address"
        },
        {
          "internalType": "bool",
          "name": "approved",
          "type": "bool"
        }
      ],
      "name": "setApprovalForAll",
      "outputs": [],
      "stateMutability": "nonpayable",
      "type": "function"
    },
    {
      "inputs": [
        {
          "internalType": "bytes4",
          "name": "interfaceId",
          "type": "bytes4"
        }
      ],
      "name": "supportsInterface",
      "outputs": [
        {
          "internalType": "bool",
          "name": "",
          "type": "bool"
        }
      ],
      "stateMutability": "view",
      "type": "function"
    },
    {
      "inputs": [],
      "name": "symbol",
      "outputs": [
        {
          "internalType": "string",
          "name": "",
          "type": "string"
        }
      ],
      "stateMutability": "view",
      "type": "function"
    },
    {
      "inputs": [
        {
          "internalType": "uint256",
          "name": "tokenId",
          "type": "uint256"
        }
      ],
      "name": "tokenURI",
      "outputs": [
        {
          "internalType": "string",
          "name": "",
          "type": "string"
        }
      ],
      "stateMutability": "view",
      "type": "function"
    },
    {
      "inputs": [
        {
          "internalType": "address",
          "name": "from",
          "type": "address"
        },
        {
          "internalType": "address",
          "name": "to",
          "type": "address"
        },
        {
          "internalType": "uint256",
          "name": "tokenId",
          "type": "uint256"
        }
      ],
      "name": "transferFrom",
      "outputs": [],
      "stateMutability": "nonpayable",
      "type": "function"
    },
    {
      "inputs": [
        {
          "internalType": "address",
          "name": "newOwner",
          "type": "address"
        }
      ],
      "name": "transferOwnership",
      "outputs": [],
      "stateMutability": "nonpayable",
      "type": "function"
    }
  ],
  "bytecode": "0x60806040523480156200001157600080fd5b506040805180820182526005815264135e53919560da1b6020808301918252835180850190945260048452631353919560e21b9084015281519192916200005b91600091620000ea565b50805162000071906001906020840190620000ea565b5050506200008e620000886200009460201b60201c565b62000098565b620001cd565b3390565b600680546001600160a01b038381166001600160a01b0319831681179093556040519116919082907f8be0079c531659141344cd1fd0a4f28419497f9722a3daafe3b4186f6b6457e090600090a35050565b828054620000f89062000190565b90600052602060002090601f0160209004810192826200011c576000855562000167565b82601f106200013757805160ff191683800117855562000167565b8280016001018555821562000167579182015b82811115620001675782518255916020019190600101906200014a565b506200017592915062000179565b5090565b5b808211156200017557600081556001016200017a565b600181811c90821680620001a557607f821691505b60208210811415620001c757634e487b7160e01b600052602260045260246000fd5b50919050565b61179480620001dd6000396000f3fe608060405234801561001057600080fd5b50600436106101215760003560e01c8063715018a6116100ad578063b88d4fde11610071578063b88d4fde14610264578063c87b56dd14610277578063e985e9c51461028a578063ee957717146102c6578063f2fde38b146102d957600080fd5b8063715018a61461021d5780638da5cb5b1461022557806395d89b4114610236578063990711901461023e578063a22cb4651461025157600080fd5b806323b872dd116100f457806323b872dd146101a3578063314318c0146101b657806342842e0e146101d65780636352211e146101e957806370a08231146101fc57600080fd5b806301ffc9a71461012657806306fdde031461014e578063081812fc14610163578063095ea7b31461018e575b600080fd5b6101396101343660046114e0565b6102ec565b60405190151581526020015b60405180910390f35b61015661033e565b60405161014591906115fc565b610176610171366004611518565b6103d0565b6040516001600160a01b039091168152602001610145565b6101a161019c3660046114b7565b61046a565b005b6101a16101b1366004611358565b610580565b6101c96101c436600461130c565b6105b1565b60405161014591906115b8565b6101a16101e4366004611358565b61061d565b6101766101f7366004611518565b610638565b61020f61020a36600461130c565b6106af565b604051908152602001610145565b6101a1610736565b6006546001600160a01b0316610176565b61015661079c565b61020f61024c366004611446565b6107ab565b6101a161025f36600461140c565b610830565b6101a1610272366004611393565b61083f565b610156610285366004611518565b610877565b610139610298366004611326565b6001600160a01b03918216600090815260056020908152604080832093909416825291909152205460ff1690565b6101566102d4366004611518565b610995565b6101a16102e736600461130c565b610a2d565b60006001600160e01b031982166380ac58cd60e01b148061031d57506001600160e01b03198216635b5e139f60e01b145b8061033857506301ffc9a760e01b6001600160e01b03198316145b92915050565b60606000805461034d906116e1565b80601f0160208091040260200160405190810160405280929190818152602001828054610379906116e1565b80156103c65780601f1061039b576101008083540402835291602001916103c6565b820191906000526020600020905b8154815290600101906020018083116103a957829003601f168201915b5050505050905090565b6000818152600260205260408120546001600160a01b031661044e5760405162461bcd60e51b815260206004820152602c60248201527f4552433732313a20617070726f76656420717565727920666f72206e6f6e657860448201526b34b9ba32b73a103a37b5b2b760a11b60648201526084015b60405180910390fd5b506000908152600460205260409020546001600160a01b031690565b600061047582610638565b9050806001600160a01b0316836001600160a01b031614156104e35760405162461bcd60e51b815260206004820152602160248201527f4552433732313a20617070726f76616c20746f2063757272656e74206f776e656044820152603960f91b6064820152608401610445565b336001600160a01b03821614806104ff57506104ff8133610298565b6105715760405162461bcd60e51b815260206004820152603860248201527f4552433732313a20617070726f76652063616c6c6572206973206e6f74206f7760448201527f6e6572206e6f7220617070726f76656420666f7220616c6c00000000000000006064820152608401610445565b61057b8383610af8565b505050565b61058a3382610b66565b6105a65760405162461bcd60e51b815260040161044590611661565b61057b838383610c5d565b6001600160a01b0381166000908152600a602090815260409182902080548351818402810184019094528084526060939283018282801561061157602002820191906000526020600020905b8154815260200190600101908083116105fd575b50505050509050919050565b61057b8383836040518060200160405280600081525061083f565b6000818152600260205260408120546001600160a01b0316806103385760405162461bcd60e51b815260206004820152602960248201527f4552433732313a206f776e657220717565727920666f72206e6f6e657869737460448201526832b73a103a37b5b2b760b91b6064820152608401610445565b60006001600160a01b03821661071a5760405162461bcd60e51b815260206004820152602a60248201527f4552433732313a2062616c616e636520717565727920666f7220746865207a65604482015269726f206164647265737360b01b6064820152608401610445565b506001600160a01b031660009081526003602052604090205490565b6006546001600160a01b031633146107905760405162461bcd60e51b815260206004820181905260248201527f4f776e61626c653a2063616c6c6572206973206e6f7420746865206f776e65726044820152606401610445565b61079a6000610df9565b565b60606001805461034d906116e1565b60006107bb600780546001019055565b60006107c660075490565b90506107d28582610e4b565b6107dc8185610f8d565b600081815260096020908152604090912084516107fb928601906111bb565b506001600160a01b0385166000908152600a602090815260408220805460018101825590835291200181905590509392505050565b61083b338383610fac565b5050565b6108493383610b66565b6108655760405162461bcd60e51b815260040161044590611661565b6108718484848461107b565b50505050565b6000818152600260205260409020546060906001600160a01b03166108f65760405162461bcd60e51b815260206004820152602f60248201527f4552433732314d657461646174613a2055524920717565727920666f72206e6f60448201526e3732bc34b9ba32b73a103a37b5b2b760891b6064820152608401610445565b6000828152600860205260408120805461090f906116e1565b80601f016020809104026020016040519081016040528092919081815260200182805461093b906116e1565b80156109885780601f1061095d57610100808354040283529160200191610988565b820191906000526020600020905b81548152906001019060200180831161096b57829003601f168201915b5093979650505050505050565b60008181526009602052604090208054606091906109b2906116e1565b80601f01602080910402602001604051908101604052809291908181526020018280546109de906116e1565b80156106115780601f10610a0057610100808354040283529160200191610611565b820191906000526020600020905b815481529060010190602001808311610a0e5750939695505050505050565b6006546001600160a01b03163314610a875760405162461bcd60e51b815260206004820181905260248201527f4f776e61626c653a2063616c6c6572206973206e6f7420746865206f776e65726044820152606401610445565b6001600160a01b038116610aec5760405162461bcd60e51b815260206004820152602660248201527f4f776e61626c653a206e6577206f776e657220697320746865207a65726f206160448201526564647265737360d01b6064820152608401610445565b610af581610df9565b50565b600081815260046020526040902080546001600160a01b0319166001600160a01b0384169081179091558190610b2d82610638565b6001600160a01b03167f8c5be1e5ebec7d5bd14f71427d1e84f3dd0314c0f7b2291e5b200ac8c7c3b92560405160405180910390a45050565b6000818152600260205260408120546001600160a01b0316610bdf5760405162461bcd60e51b815260206004820152602c60248201527f4552433732313a206f70657261746f7220717565727920666f72206e6f6e657860448201526b34b9ba32b73a103a37b5b2b760a11b6064820152608401610445565b6000610bea83610638565b9050806001600160a01b0316846001600160a01b03161480610c3157506001600160a01b0380821660009081526005602090815260408083209388168352929052205460ff165b80610c555750836001600160a01b0316610c4a846103d0565b6001600160a01b0316145b949350505050565b826001600160a01b0316610c7082610638565b6001600160a01b031614610cd45760405162461bcd60e51b815260206004820152602560248201527f4552433732313a207472616e736665722066726f6d20696e636f72726563742060448201526437bbb732b960d91b6064820152608401610445565b6001600160a01b038216610d365760405162461bcd60e51b8152602060048201526024808201527f4552433732313a207472616e7366657220746f20746865207a65726f206164646044820152637265737360e01b6064820152608401610445565b610d41600082610af8565b6001600160a01b0383166000908152600360205260408120805460019290610d6a9084906116ca565b90915550506001600160a01b0382166000908152600360205260408120805460019290610d989084906116b2565b909155505060008181526002602052604080822080546001600160a01b0319166001600160a01b0386811691821790925591518493918716917fddf252ad1be2c89b69c2b068fc378daa952ba7f163c4a11628f55a4df523b3ef91a4505050565b600680546001600160a01b038381166001600160a01b0319831681179093556040519116919082907f8be0079c531659141344cd1fd0a4f28419497f9722a3daafe3b4186f6b6457e090600090a35050565b6001600160a01b038216610ea15760405162461bcd60e51b815260206004820181905260248201527f4552433732313a206d696e7420746f20746865207a65726f20616464726573736044820152606401610445565b6000818152600260205260409020546001600160a01b031615610f065760405162461bcd60e51b815260206004820152601c60248201527f4552433732313a20746f6b656e20616c7265616479206d696e746564000000006044820152606401610445565b6001600160a01b0382166000908152600360205260408120805460019290610f2f9084906116b2565b909155505060008181526002602052604080822080546001600160a01b0319166001600160a01b03861690811790915590518392907fddf252ad1be2c89b69c2b068fc378daa952ba7f163c4a11628f55a4df523b3ef908290a45050565b6000828152600860209081526040909120825161057b928401906111bb565b816001600160a01b0316836001600160a01b0316141561100e5760405162461bcd60e51b815260206004820152601960248201527f4552433732313a20617070726f766520746f2063616c6c6572000000000000006044820152606401610445565b6001600160a01b03838116600081815260056020908152604080832094871680845294825291829020805460ff191686151590811790915591519182527f17307eab39ab6107e8899845ad3d59bd9653f200f220920489ca2b5937696c31910160405180910390a3505050565b611086848484610c5d565b611092848484846110ae565b6108715760405162461bcd60e51b81526004016104459061160f565b60006001600160a01b0384163b156111b057604051630a85bd0160e11b81526001600160a01b0385169063150b7a02906110f290339089908890889060040161157b565b602060405180830381600087803b15801561110c57600080fd5b505af192505050801561113c575060408051601f3d908101601f19168201909252611139918101906114fc565b60015b611196573d80801561116a576040519150601f19603f3d011682016040523d82523d6000602084013e61116f565b606091505b50805161118e5760405162461bcd60e51b81526004016104459061160f565b805181602001fd5b6001600160e01b031916630a85bd0160e11b149050610c55565b506001949350505050565b8280546111c7906116e1565b90600052602060002090601f0160209004810192826111e9576000855561122f565b82601f1061120257805160ff191683800117855561122f565b8280016001018555821561122f579182015b8281111561122f578251825591602001919060010190611214565b5061123b92915061123f565b5090565b5b8082111561123b5760008155600101611240565b600067ffffffffffffffff8084111561126f5761126f611732565b604051601f8501601f19908116603f0116810190828211818310171561129757611297611732565b816040528093508581528686860111156112b057600080fd5b858560208301376000602087830101525050509392505050565b80356001600160a01b03811681146112e157600080fd5b919050565b600082601f8301126112f6578081fd5b61130583833560208501611254565b9392505050565b60006020828403121561131d578081fd5b611305826112ca565b60008060408385031215611338578081fd5b611341836112ca565b915061134f602084016112ca565b90509250929050565b60008060006060848603121561136c578081fd5b611375846112ca565b9250611383602085016112ca565b9150604084013590509250925092565b600080600080608085870312156113a8578081fd5b6113b1856112ca565b93506113bf602086016112ca565b925060408501359150606085013567ffffffffffffffff8111156113e1578182fd5b8501601f810187136113f1578182fd5b61140087823560208401611254565b91505092959194509250565b6000806040838503121561141e578182fd5b611427836112ca565b91506020830135801515811461143b578182fd5b809150509250929050565b60008060006060848603121561145a578283fd5b611463846112ca565b9250602084013567ffffffffffffffff8082111561147f578384fd5b61148b878388016112e6565b935060408601359150808211156114a0578283fd5b506114ad868287016112e6565b9150509250925092565b600080604083850312156114c9578182fd5b6114d2836112ca565b946020939093013593505050565b6000602082840312156114f1578081fd5b813561130581611748565b60006020828403121561150d578081fd5b815161130581611748565b600060208284031215611529578081fd5b5035919050565b60008151808452815b8181101561155557602081850181015186830182015201611539565b818111156115665782602083870101525b50601f01601f19169290920160200192915050565b6001600160a01b03858116825284166020820152604081018390526080606082018190526000906115ae90830184611530565b9695505050505050565b6020808252825182820181905260009190848201906040850190845b818110156115f0578351835292840192918401916001016115d4565b50909695505050505050565b6020815260006113056020830184611530565b60208082526032908201527f4552433732313a207472616e7366657220746f206e6f6e20455243373231526560408201527131b2b4bb32b91034b6b83632b6b2b73a32b960711b606082015260800190565b60208082526031908201527f4552433732313a207472616e736665722063616c6c6572206973206e6f74206f6040820152701ddb995c881b9bdc88185c1c1c9bdd9959607a1b606082015260800190565b600082198211156116c5576116c561171c565b500190565b6000828210156116dc576116dc61171c565b500390565b600181811c908216806116f557607f821691505b6020821081141561171657634e487b7160e01b600052602260045260246000fd5b50919050565b634e487b7160e01b600052601160045260246000fd5b634e487b7160e01b600052604160045260246000fd5b6001600160e01b031981168114610af557600080fdfea2646970667358221220b45db1f46ca291504ac4e392f4d06815ec9567cee8cd33d346aae787d280a69964736f6c63430008040033",
  "linkReferences": {},
  "deployedLinkReferences": {}
}