{
  "_format": "hh-sol-artifact-1",
  "contractName": "MyNFT",
  "sourceName": "contracts/NFT.sol",
  "abi": [
    {
      "inputs": [],
      "stateMutability": "nonpayable",
      "type": "constructor"
    },
    {
      "anonymous": false,
      "inputs": [
        {
          "indexed": true,
          "internalType": "address",
          "name": "owner",
          "type": "address"
        },
        {
          "indexed": true,
          "internalType": "address",
          "name": "approved",
          "type": "address"
        },
        {
          "indexed": true,
          "internalType": "uint256",
          "name": "tokenId",
          "type": "uint256"
        }
      ],
      "name": "Approval",
      "type": "event"
    },
    {
      "anonymous": false,
      "inputs": [
        {
          "indexed": true,
          "internalType": "address",
          "name": "owner",
          "type": "address"
        },
        {
          "indexed": true,
          "internalType": "address",
          "name": "operator",
          "type": "address"
        },
        {
          "indexed": false,
          "internalType": "bool",
          "name": "approved",
          "type": "bool"
        }
      ],
      "name": "ApprovalForAll",
      "type": "event"
    },
    {
      "anonymous": false,
      "inputs": [
        {
          "indexed": true,
          "internalType": "address",
          "name": "previousOwner",
          "type": "address"
        },
        {
          "indexed": true,
          "internalType": "address",
          "name": "newOwner",
          "type": "address"
        }
      ],
      "name": "OwnershipTransferred",
      "type": "event"
    },
    {
      "anonymous": false,
      "inputs": [
        {
          "indexed": true,
          "internalType": "address",
          "name": "from",
          "type": "address"
        },
        {
          "indexed": true,
          "internalType": "address",
          "name": "to",
          "type": "address"
        },
        {
          "indexed": true,
          "internalType": "uint256",
          "name": "tokenId",
          "type": "uint256"
        }
      ],
      "name": "Transfer",
      "type": "event"
    },
    {
      "inputs": [
        {
          "internalType": "address",
          "name": "to",
          "type": "address"
        },
        {
          "internalType": "uint256",
          "name": "tokenId",
          "type": "uint256"
        }
      ],
      "name": "approve",
      "outputs": [],
      "stateMutability": "nonpayable",
      "type": "function"
    },
    {
      "inputs": [
        {
          "internalType": "address",
          "name": "owner",
          "type": "address"
        }
      ],
      "name": "balanceOf",
      "outputs": [
        {
          "internalType": "uint256",
          "name": "",
          "type": "uint256"
        }
      ],
      "stateMutability": "view",
      "type": "function"
    },
    {
      "inputs": [
        {
          "internalType": "uint256",
          "name": "tokenId",
          "type": "uint256"
        }
      ],
      "name": "getApproved",
      "outputs": [
        {
          "internalType": "address",
          "name": "",
          "type": "address"
        }
      ],
      "stateMutability": "view",
      "type": "function"
    },
    {
      "inputs": [],
      "name": "getMintCount",
      "outputs": [
        {
          "components": [
            {
              "internalType": "uint256",
              "name": "_value",
              "type": "uint256"
            }
          ],
          "internalType": "struct Counters.Counter",
          "name": "",
          "type": "tuple"
        }
      ],
      "stateMutability": "view",
      "type": "function"
    },
    {
      "inputs": [
        {
          "internalType": "address",
          "name": "recipient",
          "type": "address"
        }
      ],
      "name": "getOwnershipMap",
      "outputs": [
        {
          "internalType": "uint256[]",
          "name": "",
          "type": "uint256[]"
        }
      ],
      "stateMutability": "view",
      "type": "function"
    },
    {
      "inputs": [
        {
          "internalType": "uint256",
          "name": "itemId",
          "type": "uint256"
        }
      ],
      "name": "getPricePrediction",
      "outputs": [
        {
          "internalType": "string",
          "name": "",
          "type": "string"
        }
      ],
      "stateMutability": "view",
      "type": "function"
    },
    {
      "inputs": [
        {
          "internalType": "address",
          "name": "owner",
          "type": "address"
        },
        {
          "internalType": "address",
          "name": "operator",
          "type": "address"
        }
      ],
      "name": "isApprovedForAll",
      "outputs": [
        {
          "internalType": "bool",
          "name": "",
          "type": "bool"
        }
      ],
      "stateMutability": "view",
      "type": "function"
    },
    {
      "inputs": [
        {
          "internalType": "address",
          "name": "recipient",
          "type": "address"
        },
        {
          "internalType": "string",
          "name": "uri",
          "type": "string"
        },
        {
          "internalType": "string",
          "name": "ethPricePrediction",
          "type": "string"
        }
      ],
      "name": "mint",
      "outputs": [
        {
          "internalType": "uint256",
          "name": "",
          "type": "uint256"
        }
      ],
      "stateMutability": "nonpayable",
      "type": "function"
    },
    {
      "inputs": [],
      "name": "name",
      "outputs": [
        {
          "internalType": "string",
          "name": "",
          "type": "string"
        }
      ],
      "stateMutability": "view",
      "type": "function"
    },
    {
      "inputs": [],
      "name": "owner",
      "outputs": [
        {
          "internalType": "address",
          "name": "",
          "type": "address"
        }
      ],
      "stateMutability": "view",
      "type": "function"
    },
    {
      "inputs": [
        {
          "internalType": "uint256",
          "name": "tokenId",
          "type": "uint256"
        }
      ],
      "name": "ownerOf",
      "outputs": [
        {
          "internalType": "address",
          "name": "",
          "type": "address"
        }
      ],
      "stateMutability": "view",
      "type": "function"
    },
    {
      "inputs": [],
      "name": "renounceOwnership",
      "outputs": [],
      "stateMutability": "nonpayable",
      "type": "function"
    },
    {
      "inputs": [
        {
          "internalType": "address",
          "name": "from",
          "type": "address"
        },
        {
          "internalType": "address",
          "name": "to",
          "type": "address"
        },
        {
          "internalType": "uint256",
          "name": "tokenId",
          "type": "uint256"
        }
      ],
      "name": "safeTransferFrom",
      "outputs": [],
      "stateMutability": "nonpayable",
      "type": "function"
    },
    {
      "inputs": [
        {
          "internalType": "address",
          "name": "from",
          "type": "address"
        },
        {
          "internalType": "address",
          "name": "to",
          "type": "address"
        },
        {
          "internalType": "uint256",
          "name": "tokenId",
          "type": "uint256"
        },
        {
          "internalType": "bytes",
          "name": "_data",
          "type": "bytes"
        }
      ],
      "name": "safeTransferFrom",
      "outputs": [],
      "stateMutability": "nonpayable",
      "type": "function"
    },
    {
      "inputs": [
        {
          "internalType": "address",
          "name": "operator",
          "type": "address"
        },
        {
          "internalType": "bool",
          "name": "approved",
          "type": "bool"
        }
      ],
      "name": "setApprovalForAll",
      "outputs": [],
      "stateMutability": "nonpayable",
      "type": "function"
    },
    {
      "inputs": [
        {
          "internalType": "bytes4",
          "name": "interfaceId",
          "type": "bytes4"
        }
      ],
      "name": "supportsInterface",
      "outputs": [
        {
          "internalType": "bool",
          "name": "",
          "type": "bool"
        }
      ],
      "stateMutability": "view",
      "type": "function"
    },
    {
      "inputs": [],
      "name": "symbol",
      "outputs": [
        {
          "internalType": "string",
          "name": "",
          "type": "string"
        }
      ],
      "stateMutability": "view",
      "type": "function"
    },
    {
      "inputs": [
        {
          "internalType": "uint256",
          "name": "tokenId",
          "type": "uint256"
        }
      ],
      "name": "tokenURI",
      "outputs": [
        {
          "internalType": "string",
          "name": "",
          "type": "string"
        }
      ],
      "stateMutability": "view",
      "type": "function"
    },
    {
      "inputs": [
        {
          "internalType": "address",
          "name": "from",
          "type": "address"
        },
        {
          "internalType": "address",
          "name": "to",
          "type": "address"
        },
        {
          "internalType": "uint256",
          "name": "tokenId",
          "type": "uint256"
        }
      ],
      "name": "transferFrom",
      "outputs": [],
      "stateMutability": "nonpayable",
      "type": "function"
    },
    {
      "inputs": [
        {
          "internalType": "address",
          "name": "newOwner",
          "type": "address"
        }
      ],
      "name": "transferOwnership",
      "outputs": [],
      "stateMutability": "nonpayable",
      "type": "function"
    }
  ],
  "bytecode": "0x60806040523480156200001157600080fd5b506040805180820182526005815264135e53919560da1b6020808301918252835180850190945260048452631353919560e21b9084015281519192916200005b91600091620000ea565b50805162000071906001906020840190620000ea565b5050506200008e620000886200009460201b60201c565b62000098565b620001cd565b3390565b600680546001600160a01b038381166001600160a01b0319831681179093556040519116919082907f8be0079c531659141344cd1fd0a4f28419497f9722a3daafe3b4186f6b6457e090600090a35050565b828054620000f89062000190565b90600052602060002090601f0160209004810192826200011c576000855562000167565b82601f106200013757805160ff191683800117855562000167565b8280016001018555821562000167579182015b82811115620001675782518255916020019190600101906200014a565b506200017592915062000179565b5090565b5b808211156200017557600081556001016200017a565b600181811c90821680620001a557607f821691505b60208210811415620001c757634e487b7160e01b600052602260045260246000fd5b50919050565b6117c880620001dd6000396000f3fe608060405234801561001057600080fd5b506004361061012c5760003560e01c80638da5cb5b116100ad578063b88d4fde11610071578063b88d4fde14610298578063c87b56dd146102ab578063e985e9c5146102be578063ee957717146102fa578063f2fde38b1461030d57600080fd5b80638da5cb5b146102305780638fc3b5491461024157806395d89b411461026a5780639907119014610272578063a22cb4651461028557600080fd5b8063314318c0116100f4578063314318c0146101c157806342842e0e146101e15780636352211e146101f457806370a0823114610207578063715018a61461022857600080fd5b806301ffc9a71461013157806306fdde0314610159578063081812fc1461016e578063095ea7b31461019957806323b872dd146101ae575b600080fd5b61014461013f366004611514565b610320565b60405190151581526020015b60405180910390f35b610161610372565b6040516101509190611630565b61018161017c36600461154c565b610404565b6040516001600160a01b039091168152602001610150565b6101ac6101a73660046114eb565b61049e565b005b6101ac6101bc36600461138c565b6105b4565b6101d46101cf366004611340565b6105e5565b60405161015091906115ec565b6101ac6101ef36600461138c565b610651565b61018161020236600461154c565b61066c565b61021a610215366004611340565b6106e3565b604051908152602001610150565b6101ac61076a565b6006546001600160a01b0316610181565b604080516020808201835260009091528151808201835260075490819052915191825201610150565b6101616107d0565b61021a61028036600461147a565b6107df565b6101ac610293366004611440565b610864565b6101ac6102a63660046113c7565b610873565b6101616102b936600461154c565b6108ab565b6101446102cc36600461135a565b6001600160a01b03918216600090815260056020908152604080832093909416825291909152205460ff1690565b61016161030836600461154c565b6109c9565b6101ac61031b366004611340565b610a61565b60006001600160e01b031982166380ac58cd60e01b148061035157506001600160e01b03198216635b5e139f60e01b145b8061036c57506301ffc9a760e01b6001600160e01b03198316145b92915050565b60606000805461038190611715565b80601f01602080910402602001604051908101604052809291908181526020018280546103ad90611715565b80156103fa5780601f106103cf576101008083540402835291602001916103fa565b820191906000526020600020905b8154815290600101906020018083116103dd57829003601f168201915b5050505050905090565b6000818152600260205260408120546001600160a01b03166104825760405162461bcd60e51b815260206004820152602c60248201527f4552433732313a20617070726f76656420717565727920666f72206e6f6e657860448201526b34b9ba32b73a103a37b5b2b760a11b60648201526084015b60405180910390fd5b506000908152600460205260409020546001600160a01b031690565b60006104a98261066c565b9050806001600160a01b0316836001600160a01b031614156105175760405162461bcd60e51b815260206004820152602160248201527f4552433732313a20617070726f76616c20746f2063757272656e74206f776e656044820152603960f91b6064820152608401610479565b336001600160a01b0382161480610533575061053381336102cc565b6105a55760405162461bcd60e51b815260206004820152603860248201527f4552433732313a20617070726f76652063616c6c6572206973206e6f74206f7760448201527f6e6572206e6f7220617070726f76656420666f7220616c6c00000000000000006064820152608401610479565b6105af8383610b2c565b505050565b6105be3382610b9a565b6105da5760405162461bcd60e51b815260040161047990611695565b6105af838383610c91565b6001600160a01b0381166000908152600a602090815260409182902080548351818402810184019094528084526060939283018282801561064557602002820191906000526020600020905b815481526020019060010190808311610631575b50505050509050919050565b6105af83838360405180602001604052806000815250610873565b6000818152600260205260408120546001600160a01b03168061036c5760405162461bcd60e51b815260206004820152602960248201527f4552433732313a206f776e657220717565727920666f72206e6f6e657869737460448201526832b73a103a37b5b2b760b91b6064820152608401610479565b60006001600160a01b03821661074e5760405162461bcd60e51b815260206004820152602a60248201527f4552433732313a2062616c616e636520717565727920666f7220746865207a65604482015269726f206164647265737360b01b6064820152608401610479565b506001600160a01b031660009081526003602052604090205490565b6006546001600160a01b031633146107c45760405162461bcd60e51b815260206004820181905260248201527f4f776e61626c653a2063616c6c6572206973206e6f7420746865206f776e65726044820152606401610479565b6107ce6000610e2d565b565b60606001805461038190611715565b60006107ef600780546001019055565b60006107fa60075490565b90506108068582610e7f565b6108108185610fc1565b6000818152600960209081526040909120845161082f928601906111ef565b506001600160a01b0385166000908152600a602090815260408220805460018101825590835291200181905590509392505050565b61086f338383610fe0565b5050565b61087d3383610b9a565b6108995760405162461bcd60e51b815260040161047990611695565b6108a5848484846110af565b50505050565b6000818152600260205260409020546060906001600160a01b031661092a5760405162461bcd60e51b815260206004820152602f60248201527f4552433732314d657461646174613a2055524920717565727920666f72206e6f60448201526e3732bc34b9ba32b73a103a37b5b2b760891b6064820152608401610479565b6000828152600860205260408120805461094390611715565b80601f016020809104026020016040519081016040528092919081815260200182805461096f90611715565b80156109bc5780601f10610991576101008083540402835291602001916109bc565b820191906000526020600020905b81548152906001019060200180831161099f57829003601f168201915b5093979650505050505050565b60008181526009602052604090208054606091906109e690611715565b80601f0160208091040260200160405190810160405280929190818152602001828054610a1290611715565b80156106455780601f10610a3457610100808354040283529160200191610645565b820191906000526020600020905b815481529060010190602001808311610a425750939695505050505050565b6006546001600160a01b03163314610abb5760405162461bcd60e51b815260206004820181905260248201527f4f776e61626c653a2063616c6c6572206973206e6f7420746865206f776e65726044820152606401610479565b6001600160a01b038116610b205760405162461bcd60e51b815260206004820152602660248201527f4f776e61626c653a206e6577206f776e657220697320746865207a65726f206160448201526564647265737360d01b6064820152608401610479565b610b2981610e2d565b50565b600081815260046020526040902080546001600160a01b0319166001600160a01b0384169081179091558190610b618261066c565b6001600160a01b03167f8c5be1e5ebec7d5bd14f71427d1e84f3dd0314c0f7b2291e5b200ac8c7c3b92560405160405180910390a45050565b6000818152600260205260408120546001600160a01b0316610c135760405162461bcd60e51b815260206004820152602c60248201527f4552433732313a206f70657261746f7220717565727920666f72206e6f6e657860448201526b34b9ba32b73a103a37b5b2b760a11b6064820152608401610479565b6000610c1e8361066c565b9050806001600160a01b0316846001600160a01b03161480610c6557506001600160a01b0380821660009081526005602090815260408083209388168352929052205460ff165b80610c895750836001600160a01b0316610c7e84610404565b6001600160a01b0316145b949350505050565b826001600160a01b0316610ca48261066c565b6001600160a01b031614610d085760405162461bcd60e51b815260206004820152602560248201527f4552433732313a207472616e736665722066726f6d20696e636f72726563742060448201526437bbb732b960d91b6064820152608401610479565b6001600160a01b038216610d6a5760405162461bcd60e51b8152602060048201526024808201527f4552433732313a207472616e7366657220746f20746865207a65726f206164646044820152637265737360e01b6064820152608401610479565b610d75600082610b2c565b6001600160a01b0383166000908152600360205260408120805460019290610d9e9084906116fe565b90915550506001600160a01b0382166000908152600360205260408120805460019290610dcc9084906116e6565b909155505060008181526002602052604080822080546001600160a01b0319166001600160a01b0386811691821790925591518493918716917fddf252ad1be2c89b69c2b068fc378daa952ba7f163c4a11628f55a4df523b3ef91a4505050565b600680546001600160a01b038381166001600160a01b0319831681179093556040519116919082907f8be0079c531659141344cd1fd0a4f28419497f9722a3daafe3b4186f6b6457e090600090a35050565b6001600160a01b038216610ed55760405162461bcd60e51b815260206004820181905260248201527f4552433732313a206d696e7420746f20746865207a65726f20616464726573736044820152606401610479565b6000818152600260205260409020546001600160a01b031615610f3a5760405162461bcd60e51b815260206004820152601c60248201527f4552433732313a20746f6b656e20616c7265616479206d696e746564000000006044820152606401610479565b6001600160a01b0382166000908152600360205260408120805460019290610f639084906116e6565b909155505060008181526002602052604080822080546001600160a01b0319166001600160a01b03861690811790915590518392907fddf252ad1be2c89b69c2b068fc378daa952ba7f163c4a11628f55a4df523b3ef908290a45050565b600082815260086020908152604090912082516105af928401906111ef565b816001600160a01b0316836001600160a01b031614156110425760405162461bcd60e51b815260206004820152601960248201527f4552433732313a20617070726f766520746f2063616c6c6572000000000000006044820152606401610479565b6001600160a01b03838116600081815260056020908152604080832094871680845294825291829020805460ff191686151590811790915591519182527f17307eab39ab6107e8899845ad3d59bd9653f200f220920489ca2b5937696c31910160405180910390a3505050565b6110ba848484610c91565b6110c6848484846110e2565b6108a55760405162461bcd60e51b815260040161047990611643565b60006001600160a01b0384163b156111e457604051630a85bd0160e11b81526001600160a01b0385169063150b7a02906111269033908990889088906004016115af565b602060405180830381600087803b15801561114057600080fd5b505af1925050508015611170575060408051601f3d908101601f1916820190925261116d91810190611530565b60015b6111ca573d80801561119e576040519150601f19603f3d011682016040523d82523d6000602084013e6111a3565b606091505b5080516111c25760405162461bcd60e51b815260040161047990611643565b805181602001fd5b6001600160e01b031916630a85bd0160e11b149050610c89565b506001949350505050565b8280546111fb90611715565b90600052602060002090601f01602090048101928261121d5760008555611263565b82601f1061123657805160ff1916838001178555611263565b82800160010185558215611263579182015b82811115611263578251825591602001919060010190611248565b5061126f929150611273565b5090565b5b8082111561126f5760008155600101611274565b600067ffffffffffffffff808411156112a3576112a3611766565b604051601f8501601f19908116603f011681019082821181831017156112cb576112cb611766565b816040528093508581528686860111156112e457600080fd5b858560208301376000602087830101525050509392505050565b80356001600160a01b038116811461131557600080fd5b919050565b600082601f83011261132a578081fd5b61133983833560208501611288565b9392505050565b600060208284031215611351578081fd5b611339826112fe565b6000806040838503121561136c578081fd5b611375836112fe565b9150611383602084016112fe565b90509250929050565b6000806000606084860312156113a0578081fd5b6113a9846112fe565b92506113b7602085016112fe565b9150604084013590509250925092565b600080600080608085870312156113dc578081fd5b6113e5856112fe565b93506113f3602086016112fe565b925060408501359150606085013567ffffffffffffffff811115611415578182fd5b8501601f81018713611425578182fd5b61143487823560208401611288565b91505092959194509250565b60008060408385031215611452578182fd5b61145b836112fe565b91506020830135801515811461146f578182fd5b809150509250929050565b60008060006060848603121561148e578283fd5b611497846112fe565b9250602084013567ffffffffffffffff808211156114b3578384fd5b6114bf8783880161131a565b935060408601359150808211156114d4578283fd5b506114e18682870161131a565b9150509250925092565b600080604083850312156114fd578182fd5b611506836112fe565b946020939093013593505050565b600060208284031215611525578081fd5b81356113398161177c565b600060208284031215611541578081fd5b81516113398161177c565b60006020828403121561155d578081fd5b5035919050565b60008151808452815b818110156115895760208185018101518683018201520161156d565b8181111561159a5782602083870101525b50601f01601f19169290920160200192915050565b6001600160a01b03858116825284166020820152604081018390526080606082018190526000906115e290830184611564565b9695505050505050565b6020808252825182820181905260009190848201906040850190845b8181101561162457835183529284019291840191600101611608565b50909695505050505050565b6020815260006113396020830184611564565b60208082526032908201527f4552433732313a207472616e7366657220746f206e6f6e20455243373231526560408201527131b2b4bb32b91034b6b83632b6b2b73a32b960711b606082015260800190565b60208082526031908201527f4552433732313a207472616e736665722063616c6c6572206973206e6f74206f6040820152701ddb995c881b9bdc88185c1c1c9bdd9959607a1b606082015260800190565b600082198211156116f9576116f9611750565b500190565b60008282101561171057611710611750565b500390565b600181811c9082168061172957607f821691505b6020821081141561174a57634e487b7160e01b600052602260045260246000fd5b50919050565b634e487b7160e01b600052601160045260246000fd5b634e487b7160e01b600052604160045260246000fd5b6001600160e01b031981168114610b2957600080fdfea26469706673582212200e25a105aa813c686c3718027d6fed0dc3c0bf7f918e97588dcbc47e03f1fb9264736f6c63430008040033",
  "linkReferences": {},
  "deployedLinkReferences": {}
}